:020000040000FA
:100000000C9462000C948A000C948A000C948A0070
:100010000C948A000C948A000C948A000C948A0038
:100020000C948A000C948A000C948A000C948A0028
:100030000C948A000C948A000C948A000C948A0018
:100040000C94B0030C948A000C948A000C948A00DF
:100050000C948A000C948A000C948A000C948A00F8
:100060000C948A000C948A000000000024002700F1
:100070002A0000000000250028002B0000000000DE
:1000800023002600290004040404040404040202DA
:100090000202020203030303030301020408102007
:1000A0004080010204081020010204081020000012
:1000B0000008000201000003040700000000000027
:1000C0000000CD0411241FBECFEFD8E0DEBFCDBFAE
:1000D00011E0A0E0B1E0EAE2FAE002C005900D9282
:1000E000A634B107D9F721E0A6E4B1E001C01D9222
:1000F000AD36B207E1F710E0C2E6D0E004C02197C8
:10010000FE010E940D05C136D107C9F70E94FA030E
:100110000C9413050C940000AF92BF92CF92DF9223
:10012000EF92FF920F931F93CF93DF936C017B01AC
:100130008B01040F151FEB015E01AE18BF08C0173D
:10014000D10759F06991D601ED91FC910190F081B0
:10015000E02DC6010995892B79F7C501DF91CF9173
:100160001F910F91FF90EF90DF90CF90BF90AF90D5
:100170000895833081F028F4813099F08230A9F01D
:1001800008958730A9F08830C9F08430B1F48091A7
:1001900080008F7D03C0809180008F7780938000E6
:1001A000089584B58F7784BD089584B58F7DFBCF86
:1001B0008091B0008F778093B00008958091B00057
:1001C0008F7DF9CFCF93DF93282F30E0F901E255EF
:1001D000FF4F8491F901E656FF4FD491F901EA5798
:1001E000FF4FC491CC23A1F081110E94B900EC2FE4
:1001F000F0E0EE0FFF1FE458FF4FA591B491EC9192
:10020000ED2381E090E009F480E0DF91CF91089543
:1002100080E090E0FACF1F93CF93DF93282F30E058
:10022000F901E255FF4F8491F901E656FF4FD49151
:10023000F901EA57FF4FC491CC23A9F0162F811181
:100240000E94B900EC2FF0E0EE0FFF1FEE58FF4FB9
:10025000A591B4918FB7F894EC91111108C0D09585
:10026000DE23DC938FBFDF91CF911F910895DE2BAA
:10027000F8CFCF93DF9390E0FC01E656FF4F249137
:100280008A579F4FFC0184918823D1F090E0880F1A
:10029000991FFC01E859FF4FA591B491FC01EE585C
:1002A000FF4FC591D491623071F49FB7F8943C919F
:1002B000822F809583238C93E8812E2B28839FBFE8
:1002C000DF91CF9108958FB7F894EC912E2B2C935A
:1002D0008FBFF6CF3FB7F89480914B0190914C01BE
:1002E000A0914D01B0914E0126B5A89B05C02F3FAE
:1002F00019F00196A11DB11D3FBFBA2FA92F982F4C
:100300008827BC01CD01620F711D811D911D42E046
:10031000660F771F881F991F4A95D1F708958F920E
:100320009F92AF92BF92CF92DF92EF92FF920E9484
:100330006A014B015C0184E6C82ED12CE12CF12C22
:100340000E946A01681979098A099B09683E73400D
:1003500081059105A8F321E0C21AD108E108F1084E
:1003600088EE880E83E0981EA11CB11CC114D10434
:10037000E104F10429F7FF90EF90DF90CF90BF9058
:10038000AF909F908F900895089590E080E0089539
:100390008F929F92AF92BF920F931F93CF93DF9351
:1003A000CDB7DEB7A1970FB6F894DEBF0FBECDBFB5
:1003B00019A2423008F44AE08E010F5D1F4F842ECF
:1003C000912CB12CA12CA50194010E94EB04E62FE5
:1003D000B901CA01EA3044F5E05DD801EE938D0120
:1003E000232B242B252B79F790E080E0109769F0E0
:1003F000FD0101900020E9F73197AF014A1B5B0B2B
:10040000BD0185E591E00E948C00A1960FB6F8949D
:10041000DEBF0FBECDBFDF91CF911F910F91BF9077
:10042000AF909F908F900895E95CD7CFFC01019029
:100430000020E9F73197AF01481B590BBC0185E556
:1004400091E00C948C00CF93DF93EC0160E08E81FF
:100450000E940B0161E08E810E940B0160E08E81A1
:100460000E940B018BE891E00197F1F7DF91CF91AA
:100470000895CF92DF92EF92FF920F931F93CF9345
:10048000DF936C017C0187E0E80EF11CD0E0C0E056
:10049000062F10E0B8010C2E02C0759567950A94DE
:1004A000E2F76170F70181917F010E940B012196B3
:1004B000C430D10579F7C601DF91CF911F910F911B
:1004C000FF90EF90DF90CF900C942302CF92DF92B9
:1004D000EF92FF920F931F93CF93DF93EC01F62ED1
:1004E000642F8C810E940B018D818F3F19F060E099
:1004F0000E940B010F2D10E08F8584FF25C06E0137
:1005000087E0C80ED11CF12CE12CB8010E2C02C0E2
:10051000759567950A94E2F76170F60181916F0114
:100520000E940B01FFEFEF1AFF0A88E0E816F104C2
:1005300061F7CE01DF91CF911F910F91FF90EF9066
:10054000DF90CF900C942302B80184E075956795F5
:100550008A95E1F7CE010E9439026F2DCE01DF911D
:10056000CF911F910F91FF90EF90DF90CF900C945F
:10057000390240E0682F85E591E00C946602CF9344
:10058000DF93823029F49091640198609093640124
:10059000809368011092690180E480936A0180E190
:1005A00080936B0180E580936C0161E0809159013B
:1005B0000E94390180915A018F3F19F061E00E9439
:1005C000390161E080915B010E943901C5E5D1E00C
:1005D0009E01255531408091640184FD0BC084E06B
:1005E00090E021962817390744F461E08E810E943B
:1005F0003901EECF88E090E0F4CF8BE39DE00197E6
:10060000F1F760E0809159010E940B0160E0809158
:100610005B010E940B0180915A018F3F19F060E04D
:100620000E940B018091640184FD39C063E085E57F
:1006300091E00E943902CBE4D6E4CE010197F1F7B4
:1006400063E085E591E00E9439022197F1F763E0CC
:1006500085E591E00E94390283E592E00197F1F788
:1006600062E085E591E00E94390280916401806238
:100670000E94B90284E0809365018CE00E94B90277
:1006800081E00E94B9028BE39FE10197F1F782E0DC
:100690008093660186E0DF91CF910C94B90280626D
:1006A0000E94B9028BE496E40197F1F7809164010E
:1006B00080620E94B90283E592E00197F1F7809190
:1006C000640180620E94B902D0CF41E00E946602BC
:1006D00081E090E00895CF92DF92EF92FF926C015B
:1006E000E1E0809168018111E0E0E195F0E0EB5AF2
:1006F000FE4F848980680E94B90280E191E00E94E7
:100700001602E0916801E23048F5E150F0E0EB5A62
:10071000FE4F848980680E94B9020D2C000CEE08FF
:10072000FF084AE0C701B601F7FE0EC041E06DE2E6
:1007300085E591E00E94660266277727CB016C1958
:100740007D098E099F094AE00E94C80185E291E077
:10075000FF90EF90DF90CF900C941602E1E0D6CF9F
:100760001F920F920FB60F9211242F933F938F93E6
:100770009F93AF93BF938091470190914801A091BF
:100780004901B0914A013091460123E0230F2D37F2
:1007900058F50196A11DB11D209346018093470194
:1007A00090934801A0934901B0934A0180914B0175
:1007B00090914C01A0914D01B0914E010196A11D67
:1007C000B11D80934B0190934C01A0934D01B093C8
:1007D0004E01BF91AF919F918F913F912F910F90BB
:1007E0000FBE0F901F90189526E8230F0296A11DAB
:1007F000B11DD2CF789484B5826084BD84B5816008
:1008000084BD85B5826085BD85B5816085BD8091DB
:100810006E00816080936E00109281008091810053
:10082000826080938100809181008160809381004B
:10083000809180008160809380008091B10084600D
:100840008093B1008091B00081608093B00080916E
:100850007A00846080937A0080917A00826080932D
:100860007A0080917A00816080937A0080917A008A
:10087000806880937A001092C10082E00E94BF02DB
:1008800062E088E00E94390162E089E00E9439015B
:1008900061E08DE00E94390161E08CE00E94390145
:1008A000E1E0809168018111E0E0E195F0E0EB5A30
:1008B000FE4F848980680E94B90289E391E00E941A
:1008C0001602C0E0D0E088E00E94E2008C01909324
:1008D00054018093530189E00E94E20090935201F9
:1008E000809351018091020190910301081719072B
:1008F00081F00130110569F480914F019091500110
:1009000001969093500180934F010E946B030E94C7
:100910008F01809153019091540190930301809332
:10092000020180915101909152012091000130917A
:1009300001018217930779F0019769F480914F01C3
:100940009091500101979093500180934F010E9424
:100950006B030E948F0180915101909152019093FD
:1009600001018093000180914F01909150010A97FD
:1009700074F061E08DE00E940B0160E08CE00E9469
:100980000B01209709F49FCF0E9400009CCF60E0EC
:100990008DE00E940B0161E0F1CFE5E5F1E013820B
:1009A000128288E091E09183808387E084838FEFD7
:1009B000858386E0868385E0878384E0808783E083
:1009C000818782E0828713861486158616861786AD
:1009D00081E00C94BF02A1E21A2EAA1BBB1BFD01F1
:1009E0000DC0AA1FBB1FEE1FFF1FA217B307E4070E
:1009F000F50720F0A21BB30BE40BF50B661F771F66
:100A0000881F991F1A9469F7609570958095909545
:100A10009B01AC01BD01CF010895EE0FFF1F0590B2
:100A2000F491E02D0994F894FFCF0100010000003B
:100A3000000065038C00C501C401434F4E5441447E
:100A40004F522044452050554C534F532E2E0020DA
:100A50002056656365732050726573696F6E6164BB
:100A60006F2E002D4269656E76656E69646F2D008C
:107E0000112484B714BE81FFF0D085E080938100F7
:107E100082E08093C00088E18093C10086E0809377
:107E2000C20080E18093C4008EE0C9D0259A86E02C
:107E300020E33CEF91E0309385002093840096BBD3
:107E4000B09BFECF1D9AA8958150A9F7CC24DD24C4
:107E500088248394B5E0AB2EA1E19A2EF3E0BF2EE7
:107E6000A2D0813461F49FD0082FAFD0023811F036
:107E7000013811F484E001C083E08DD089C08234E0
:107E800011F484E103C0853419F485E0A6D080C0E4
:107E9000853579F488D0E82EFF2485D0082F10E0AE
:107EA000102F00270E291F29000F111F8ED06801E7
:107EB0006FC0863521F484E090D080E0DECF843638
:107EC00009F040C070D06FD0082F6DD080E0C81688
:107ED00080E7D80618F4F601B7BEE895C0E0D1E017
:107EE00062D089930C17E1F7F0E0CF16F0E7DF06D8
:107EF00018F0F601B7BEE89568D007B600FCFDCFD4
:107F0000A601A0E0B1E02C9130E011968C91119780
:107F100090E0982F8827822B932B1296FA010C0160
:107F200087BEE89511244E5F5F4FF1E0A038BF0790
:107F300051F7F601A7BEE89507B600FCFDCF97BE46
:107F4000E89526C08437B1F42ED02DD0F82E2BD052
:107F50003CD0F601EF2C8F010F5F1F4F84911BD097
:107F6000EA94F801C1F70894C11CD11CFA94CF0C13
:107F7000D11C0EC0853739F428D08EE10CD085E9AC
:107F80000AD08FE07ACF813511F488E018D01DD067
:107F900080E101D065CF982F8091C00085FFFCCF94
:107FA0009093C60008958091C00087FFFCCF809118
:107FB000C00084FD01C0A8958091C6000895E0E648
:107FC000F0E098E1908380830895EDDF803219F02E
:107FD00088E0F5DFFFCF84E1DECF1F93182FE3DFCA
:107FE0001150E9F7F2DF1F91089580E0E8DFEE27F6
:047FF000FF270994CA
:027FFE00040479
:00000001FF
